{
  "_format": "hh3-artifact-1",
  "contractName": "PepperSupplyChain",
  "sourceName": "contracts/PepperSupplyChain.sol",
  "abi": [
    {
      "inputs": [],
      "stateMutability": "nonpayable",
      "type": "constructor"
    },
    {
      "anonymous": false,
      "inputs": [
        {
          "indexed": true,
          "internalType": "address",
          "name": "actor",
          "type": "address"
        },
        {
          "indexed": true,
          "internalType": "uint256",
          "name": "lotId",
          "type": "uint256"
        },
        {
          "indexed": false,
          "internalType": "enum PepperSupplyChain.Action",
          "name": "action",
          "type": "uint8"
        }
      ],
      "name": "AuditLog",
      "type": "event"
    },
    {
      "anonymous": false,
      "inputs": [
        {
          "indexed": false,
          "internalType": "bytes32",
          "name": "farmId",
          "type": "bytes32"
        }
      ],
      "name": "FarmCertified",
      "type": "event"
    },
    {
      "anonymous": false,
      "inputs": [
        {
          "indexed": true,
          "internalType": "uint256",
          "name": "lotId",
          "type": "uint256"
        },
        {
          "indexed": true,
          "internalType": "address",
          "name": "farmer",
          "type": "address"
        }
      ],
      "name": "LotCreated",
      "type": "event"
    },
    {
      "anonymous": false,
      "inputs": [
        {
          "indexed": false,
          "internalType": "uint256",
          "name": "lotId",
          "type": "uint256"
        }
      ],
      "name": "LotFlagged",
      "type": "event"
    },
    {
      "anonymous": false,
      "inputs": [
        {
          "indexed": false,
          "internalType": "uint256",
          "name": "newLot",
          "type": "uint256"
        }
      ],
      "name": "LotMerged",
      "type": "event"
    },
    {
      "anonymous": false,
      "inputs": [
        {
          "indexed": false,
          "internalType": "uint256",
          "name": "lotId",
          "type": "uint256"
        }
      ],
      "name": "LotRecalled",
      "type": "event"
    },
    {
      "anonymous": false,
      "inputs": [
        {
          "indexed": true,
          "internalType": "uint256",
          "name": "lotId",
          "type": "uint256"
        },
        {
          "indexed": true,
          "internalType": "address",
          "name": "from",
          "type": "address"
        },
        {
          "indexed": true,
          "internalType": "address",
          "name": "to",
          "type": "address"
        }
      ],
      "name": "OwnershipTransferred",
      "type": "event"
    },
    {
      "anonymous": false,
      "inputs": [
        {
          "indexed": true,
          "internalType": "uint256",
          "name": "lotId",
          "type": "uint256"
        },
        {
          "indexed": false,
          "internalType": "uint256",
          "name": "amount",
          "type": "uint256"
        },
        {
          "indexed": false,
          "internalType": "address",
          "name": "receiver",
          "type": "address"
        }
      ],
      "name": "PaymentReleased",
      "type": "event"
    },
    {
      "anonymous": false,
      "inputs": [
        {
          "indexed": false,
          "internalType": "string",
          "name": "role",
          "type": "string"
        },
        {
          "indexed": false,
          "internalType": "address",
          "name": "user",
          "type": "address"
        }
      ],
      "name": "RoleGranted",
      "type": "event"
    },
    {
      "anonymous": false,
      "inputs": [
        {
          "indexed": true,
          "internalType": "uint256",
          "name": "lotId",
          "type": "uint256"
        },
        {
          "indexed": false,
          "internalType": "enum PepperSupplyChain.Status",
          "name": "status",
          "type": "uint8"
        }
      ],
      "name": "StatusChanged",
      "type": "event"
    },
    {
      "inputs": [],
      "name": "admin",
      "outputs": [
        {
          "internalType": "address",
          "name": "",
          "type": "address"
        }
      ],
      "stateMutability": "view",
      "type": "function"
    },
    {
      "inputs": [
        {
          "internalType": "uint256",
          "name": "id",
          "type": "uint256"
        }
      ],
      "name": "buyLot",
      "outputs": [],
      "stateMutability": "payable",
      "type": "function"
    },
    {
      "inputs": [
        {
          "internalType": "address",
          "name": "",
          "type": "address"
        }
      ],
      "name": "certifiers",
      "outputs": [
        {
          "internalType": "bool",
          "name": "",
          "type": "bool"
        }
      ],
      "stateMutability": "view",
      "type": "function"
    },
    {
      "inputs": [
        {
          "internalType": "bytes32",
          "name": "farmId",
          "type": "bytes32"
        },
        {
          "internalType": "bytes32",
          "name": "certHash",
          "type": "bytes32"
        },
        {
          "internalType": "uint256",
          "name": "validUntil",
          "type": "uint256"
        }
      ],
      "name": "certifyFarm",
      "outputs": [],
      "stateMutability": "nonpayable",
      "type": "function"
    },
    {
      "inputs": [
        {
          "internalType": "uint256",
          "name": "id",
          "type": "uint256"
        }
      ],
      "name": "confirmReceived",
      "outputs": [],
      "stateMutability": "view",
      "type": "function"
    },
    {
      "inputs": [
        {
          "internalType": "uint256",
          "name": "id",
          "type": "uint256"
        },
        {
          "internalType": "bytes32",
          "name": "farmId",
          "type": "bytes32"
        },
        {
          "internalType": "uint256",
          "name": "weight",
          "type": "uint256"
        }
      ],
      "name": "createLot",
      "outputs": [],
      "stateMutability": "nonpayable",
      "type": "function"
    },
    {
      "inputs": [
        {
          "internalType": "address",
          "name": "",
          "type": "address"
        }
      ],
      "name": "distributors",
      "outputs": [
        {
          "internalType": "bool",
          "name": "",
          "type": "bool"
        }
      ],
      "stateMutability": "view",
      "type": "function"
    },
    {
      "inputs": [
        {
          "internalType": "address",
          "name": "",
          "type": "address"
        }
      ],
      "name": "farmers",
      "outputs": [
        {
          "internalType": "bool",
          "name": "",
          "type": "bool"
        }
      ],
      "stateMutability": "view",
      "type": "function"
    },
    {
      "inputs": [
        {
          "internalType": "bytes32",
          "name": "",
          "type": "bytes32"
        }
      ],
      "name": "farms",
      "outputs": [
        {
          "internalType": "bytes32",
          "name": "certHash",
          "type": "bytes32"
        },
        {
          "internalType": "uint256",
          "name": "validUntil",
          "type": "uint256"
        },
        {
          "internalType": "bool",
          "name": "certified",
          "type": "bool"
        }
      ],
      "stateMutability": "view",
      "type": "function"
    },
    {
      "inputs": [
        {
          "internalType": "uint256",
          "name": "id",
          "type": "uint256"
        }
      ],
      "name": "flagLot",
      "outputs": [],
      "stateMutability": "nonpayable",
      "type": "function"
    },
    {
      "inputs": [
        {
          "internalType": "uint256",
          "name": "id",
          "type": "uint256"
        }
      ],
      "name": "getLot",
      "outputs": [
        {
          "components": [
            {
              "internalType": "uint256",
              "name": "id",
              "type": "uint256"
            },
            {
              "internalType": "bytes32",
              "name": "farmId",
              "type": "bytes32"
            },
            {
              "internalType": "address",
              "name": "farmer",
              "type": "address"
            },
            {
              "internalType": "address",
              "name": "owner",
              "type": "address"
            },
            {
              "internalType": "uint128",
              "name": "initialWeight",
              "type": "uint128"
            },
            {
              "internalType": "uint128",
              "name": "processedWeight",
              "type": "uint128"
            },
            {
              "internalType": "uint128",
              "name": "price",
              "type": "uint128"
            },
            {
              "internalType": "uint128",
              "name": "escrow",
              "type": "uint128"
            },
            {
              "internalType": "uint64",
              "name": "createdAt",
              "type": "uint64"
            },
            {
              "internalType": "uint64",
              "name": "updatedAt",
              "type": "uint64"
            },
            {
              "internalType": "enum PepperSupplyChain.Status",
              "name": "status",
              "type": "uint8"
            },
            {
              "internalType": "bool",
              "name": "flagged",
              "type": "bool"
            },
            {
              "internalType": "bool",
              "name": "escrowPaid",
              "type": "bool"
            },
            {
              "internalType": "uint256[]",
              "name": "sourceLots",
              "type": "uint256[]"
            }
          ],
          "internalType": "struct PepperSupplyChain.Lot",
          "name": "",
          "type": "tuple"
        }
      ],
      "stateMutability": "view",
      "type": "function"
    },
    {
      "inputs": [
        {
          "internalType": "address",
          "name": "a",
          "type": "address"
        }
      ],
      "name": "grantCertifier",
      "outputs": [],
      "stateMutability": "nonpayable",
      "type": "function"
    },
    {
      "inputs": [
        {
          "internalType": "address",
          "name": "a",
          "type": "address"
        }
      ],
      "name": "grantDistributor",
      "outputs": [],
      "stateMutability": "nonpayable",
      "type": "function"
    },
    {
      "inputs": [
        {
          "internalType": "address",
          "name": "a",
          "type": "address"
        }
      ],
      "name": "grantFarmer",
      "outputs": [],
      "stateMutability": "nonpayable",
      "type": "function"
    },
    {
      "inputs": [
        {
          "internalType": "address",
          "name": "a",
          "type": "address"
        }
      ],
      "name": "grantProcessor",
      "outputs": [],
      "stateMutability": "nonpayable",
      "type": "function"
    },
    {
      "inputs": [
        {
          "internalType": "address",
          "name": "a",
          "type": "address"
        }
      ],
      "name": "grantRetailer",
      "outputs": [],
      "stateMutability": "nonpayable",
      "type": "function"
    },
    {
      "inputs": [
        {
          "internalType": "uint256",
          "name": "",
          "type": "uint256"
        }
      ],
      "name": "lots",
      "outputs": [
        {
          "internalType": "uint256",
          "name": "id",
          "type": "uint256"
        },
        {
          "internalType": "bytes32",
          "name": "farmId",
          "type": "bytes32"
        },
        {
          "internalType": "address",
          "name": "farmer",
          "type": "address"
        },
        {
          "internalType": "address",
          "name": "owner",
          "type": "address"
        },
        {
          "internalType": "uint128",
          "name": "initialWeight",
          "type": "uint128"
        },
        {
          "internalType": "uint128",
          "name": "processedWeight",
          "type": "uint128"
        },
        {
          "internalType": "uint128",
          "name": "price",
          "type": "uint128"
        },
        {
          "internalType": "uint128",
          "name": "escrow",
          "type": "uint128"
        },
        {
          "internalType": "uint64",
          "name": "createdAt",
          "type": "uint64"
        },
        {
          "internalType": "uint64",
          "name": "updatedAt",
          "type": "uint64"
        },
        {
          "internalType": "enum PepperSupplyChain.Status",
          "name": "status",
          "type": "uint8"
        },
        {
          "internalType": "bool",
          "name": "flagged",
          "type": "bool"
        },
        {
          "internalType": "bool",
          "name": "escrowPaid",
          "type": "bool"
        }
      ],
      "stateMutability": "view",
      "type": "function"
    },
    {
      "inputs": [
        {
          "internalType": "uint256",
          "name": "id",
          "type": "uint256"
        }
      ],
      "name": "markShipped",
      "outputs": [],
      "stateMutability": "nonpayable",
      "type": "function"
    },
    {
      "inputs": [
        {
          "internalType": "uint256",
          "name": "id",
          "type": "uint256"
        }
      ],
      "name": "markSold",
      "outputs": [],
      "stateMutability": "nonpayable",
      "type": "function"
    },
    {
      "inputs": [
        {
          "internalType": "uint256",
          "name": "newId",
          "type": "uint256"
        },
        {
          "internalType": "uint256[]",
          "name": "source",
          "type": "uint256[]"
        }
      ],
      "name": "mergeLots",
      "outputs": [],
      "stateMutability": "nonpayable",
      "type": "function"
    },
    {
      "inputs": [
        {
          "internalType": "uint256",
          "name": "id",
          "type": "uint256"
        },
        {
          "internalType": "uint256",
          "name": "processedWeight",
          "type": "uint256"
        }
      ],
      "name": "processLot",
      "outputs": [],
      "stateMutability": "nonpayable",
      "type": "function"
    },
    {
      "inputs": [
        {
          "internalType": "address",
          "name": "",
          "type": "address"
        }
      ],
      "name": "processors",
      "outputs": [
        {
          "internalType": "bool",
          "name": "",
          "type": "bool"
        }
      ],
      "stateMutability": "view",
      "type": "function"
    },
    {
      "inputs": [
        {
          "internalType": "uint256",
          "name": "id",
          "type": "uint256"
        }
      ],
      "name": "recallLot",
      "outputs": [],
      "stateMutability": "nonpayable",
      "type": "function"
    },
    {
      "inputs": [
        {
          "internalType": "uint256",
          "name": "id",
          "type": "uint256"
        }
      ],
      "name": "refundEscrow",
      "outputs": [],
      "stateMutability": "nonpayable",
      "type": "function"
    },
    {
      "inputs": [
        {
          "internalType": "address",
          "name": "",
          "type": "address"
        }
      ],
      "name": "retailers",
      "outputs": [
        {
          "internalType": "bool",
          "name": "",
          "type": "bool"
        }
      ],
      "stateMutability": "view",
      "type": "function"
    },
    {
      "inputs": [
        {
          "internalType": "address",
          "name": "a",
          "type": "address"
        }
      ],
      "name": "revokeDistributor",
      "outputs": [],
      "stateMutability": "nonpayable",
      "type": "function"
    },
    {
      "inputs": [
        {
          "internalType": "address",
          "name": "a",
          "type": "address"
        }
      ],
      "name": "revokeFarmer",
      "outputs": [],
      "stateMutability": "nonpayable",
      "type": "function"
    },
    {
      "inputs": [
        {
          "internalType": "address",
          "name": "a",
          "type": "address"
        }
      ],
      "name": "revokeProcessor",
      "outputs": [],
      "stateMutability": "nonpayable",
      "type": "function"
    },
    {
      "inputs": [
        {
          "internalType": "address",
          "name": "a",
          "type": "address"
        }
      ],
      "name": "revokeRetailer",
      "outputs": [],
      "stateMutability": "nonpayable",
      "type": "function"
    },
    {
      "inputs": [
        {
          "internalType": "uint256",
          "name": "id",
          "type": "uint256"
        },
        {
          "internalType": "uint256",
          "name": "price",
          "type": "uint256"
        }
      ],
      "name": "setPrice",
      "outputs": [],
      "stateMutability": "nonpayable",
      "type": "function"
    },
    {
      "inputs": [
        {
          "internalType": "bytes32",
          "name": "farmId",
          "type": "bytes32"
        },
        {
          "internalType": "bytes32",
          "name": "newHash",
          "type": "bytes32"
        },
        {
          "internalType": "uint256",
          "name": "newValid",
          "type": "uint256"
        }
      ],
      "name": "updateFarmCertification",
      "outputs": [],
      "stateMutability": "nonpayable",
      "type": "function"
    }
  ],
  "bytecode": "0x608080604052346026575f80546001600160a01b03191633179055611a21908161002b8239f35b5f80fdfe6080806040526004361015610012575f80fd5b5f3560e01c90816310f908bd1461162557508063120b93d3146115d457806325c991911461154a57806327dac36d146114ff578063356f9dfd14611484578063401b2168146114435780634968441b146113c6578063514a88ab1461131a5780635d42b2b9146112d9578063603765281461124e57806363ca21d7146111c157806374e3e3dc146110c9578063782eb934146110785780637a9b62ba14610f725780638b017a2414610f215780639580973714610e96578063965e064a14610e5557806398330bb214610bcf5780639a268f3514610b8e578063ab995d12146108cc578063b233a67914610881578063c009d80b146106ab578063c208bdf814610623578063c2b0513a146105d2578063cc64278414610591578063e78623531461051f578063eed90d6b1461040e578063f1648e841461031e578063f7d97577146102cf578063f851a440146102a85763fed0abc814610171575f80fd5b3461026f57602036600319011261026f57600435335f52600460205260ff60405f20541615610273576101a38161186a565b6101ac816118bf565b6003810154336001600160a01b039091160361026f57600681016101e2600260ff835460801c166101dc81611698565b146116db565b805460ff60801b1916600360801b17815561020790426001600160401b031690611842565b805460405191907f365a3d0a71be5f440c8224437355d5bd81a703759bf906e441902272bfbafcb3602084600361023f9652a2611902565b604051600381525f5160206119ac5f395f51905f5260203392a3005b634e487b7160e01b5f52602160045260245ffd5b5f80fd5b60405162461bcd60e51b815260206004820152600d60248201526c27a7262cafa922aa20a4a622a960991b6044820152606490fd5b3461026f575f36600319011261026f575f546040516001600160a01b039091168152602090f35b3461026f576102e76102e036611682565b919061186a565b60038101546001600160a01b0316330361026f5760050180546001600160801b0319166001600160801b0392909216919091179055005b3461026f57602036600319011261026f576004355f5260076020526101a060405f2060ff815491600181015460018060a01b036002830154169160018060a01b036003820154166004820154906006600584015493015494868660801c16946040519889526020890152604088015260608701526001600160801b038116608087015260801c60a08601526001600160801b03811660c086015260801c60e08501526001600160401b0382166101008501526001600160401b038260401c166101208501526103ec81611698565b610140840152818160881c16151561016084015260901c161515610180820152f35b3461026f57602036600319011261026f57600435335f52600360205260ff60405f205416156104e7576104408161186a565b610449816118bf565b6003810154336001600160a01b039091160361026f5760068101610479600160ff835460801c166101dc81611698565b805460ff60801b1916600160811b17815561049e90426001600160401b031690611842565b5460405160208160027f365a3d0a71be5f440c8224437355d5bd81a703759bf906e441902272bfbafcb39352a2604051600281525f5160206119ac5f395f51905f5260203392a3005b60405162461bcd60e51b815260206004820152601060248201526f27a7262cafa224a9aa2924a12aaa27a960811b6044820152606490fd5b3461026f57602036600319011261026f577f6e6436ac1c0629cca39b4bc5a42892c686a397bade5737a5b2ae50770e990cd6602060043561056a60018060a01b035f541633146116a2565b60066105758261186a565b01805461ffff60801b1916604160821b179055604051908152a1005b3461026f57602036600319011261026f576004356001600160a01b0381169081900361026f575f526003602052602060ff60405f2054166040519015158152f35b3461026f57602036600319011261026f576004356001600160a01b0381169081900361026f5761060c60018060a01b035f541633146116a2565b5f908152600160205260409020805460ff19169055005b3461026f57602036600319011261026f576004356001600160a01b0381169081900361026f5760805f5160206119cc5f395f51905f529161066e60018060a01b035f541633146116a2565b805f52600160205260405f20600160ff19825416179055604051906040825260066040830152652320a926a2a960d11b60608301526020820152a1005b3461026f57606036600319011261026f57600435602435335f52600160205260ff60405f2054161561084e57815f5260076020526106ed60405f205415611809565b805f52600660205260405f2060ff60028201541615610814576001015442116107e0575f82815260076020526040902082815560018101919091556002810180546001600160a01b03199081163390811790925560038301805490911690911790556004810180546001600160801b0319166044356001600160801b0316179055600601805470ff0000000000000000ffffffffffffffff1916426001600160401b0316908117825561079f91611842565b60405133827faaed580d4fe13689c950c46cfb81764d28b4e2654b987b7fa488ea3dc9d783c85f80a35f81525f5160206119ac5f395f51905f5260203392a3005b60405162461bcd60e51b815260206004820152600c60248201526b10d1549517d156141254915160a21b6044820152606490fd5b60405162461bcd60e51b81526020600482015260126024820152711190549357d393d517d0d15495125192515160721b6044820152606490fd5b60405162461bcd60e51b815260206004820152600b60248201526a27a7262cafa320a926a2a960a91b6044820152606490fd5b3461026f57602036600319011261026f577f0193555d7e9c83ab3bf1b10073a2a5ddd375fe766472eca26db2f6f7c15f26e5602060043561056a60018060a01b035f541633146116a2565b3461026f57602036600319011261026f5760606101a06040516108ee81611714565b5f81525f60208201525f60408201525f838201525f60808201525f60a08201525f60c08201525f60e08201525f6101008201525f6101208201525f6101408201525f6101608201525f61018082015201526004355f52600760205260405f2060405161095981611714565b815481526001820154906020810191825260018060a01b03600284015416926040820193845260018060a01b03600382015416906060830191825260048101548360808101926001600160801b038316845260a082019260801c835260058101549360c08301946001600160801b038116865260e084019060801c815260068301549586956101008601936001600160401b038816855260076101208801966001600160401b038a60401c16885260ff610180818c60801c169a61014081019b610a2281611698565b8c528261016082019d60881c1615158d52019b60901c1615158b5201996040519a8b602082549182815201915f5260205f20905f5b818110610b78575050508b9003610a6e908c611730565b6101a08c019a8b52604051809e819e602083526101e083019e516020840152516040830152600160a01b600190039051169060600152600160a01b6001900390511660808d0152516001600160801b031660a08c0152516001600160801b031660c08b0152516001600160801b031660e08a0152516001600160801b0316610100890152516001600160401b0316610120880152516001600160401b031661014087015251610b1c81611698565b6101608601525115156101808501525115156101a084015251906101c083016101c090528151809152610200830191602001905f5b818110610b5f575050500390f35b8251845285945060209384019390920191600101610b51565b8254845260209093019260019283019201610a57565b3461026f57602036600319011261026f576004356001600160a01b0381169081900361026f575f526004602052602060ff60405f2054166040519015158152f35b3461026f57604036600319011261026f576004356024356001600160401b03811161026f573660238201121561026f578060040135906001600160401b03821161026f57602481013660248460051b8401011161026f57335f526002602052610c3e60ff60405f2054166117cc565b835f526007602052610c5460405f205415611809565b5f93845b84861015610cd55760248660051b850101355f52600760205260405f20600160ff600683015460801c16610c8b81611698565b0361026f576003810154336001600160a01b039091160361026f576004015460801c8101809111610cc157600190950194610c58565b634e487b7160e01b5f52601160045260245ffd5b84825f52600760205260405f20918115610e415784355f908152600760208190526040909120600190810154908501558484556003840180546001600160a01b031916331790556004840180546001600160801b0319166001600160801b03939093169290921790915560068301805460ff60801b1916600160801b178155920193680100000000000000008211610e2d578454828655808310610e07575b50935f5260205f205f5b828110610df357835467ffffffffffffffff1916426001600160401b031690811785558590610dad9086611842565b7f6d464c92f87943ecbd519a80912d55d03aa6be625bd5ebc447151d4beb2eb8cc6020604051838152a1604051600481525f5160206119ac5f395f51905f5260203392a3005b600190602087359701968184015501610d7e565b855f528260205f2091820191015b818110610e225750610d74565b5f8155600101610e15565b634e487b7160e01b5f52604160045260245ffd5b634e487b7160e01b5f52603260045260245ffd5b3461026f57602036600319011261026f576004356001600160a01b0381169081900361026f575f526002602052602060ff60405f2054166040519015158152f35b3461026f57602036600319011261026f576004356001600160a01b0381169081900361026f5760805f5160206119cc5f395f51905f5291610ee160018060a01b035f541633146116a2565b805f52600260205260405f20600160ff1982541617905560405190604082526009604083015268282927a1a2a9a9a7a960b91b60608301526020820152a1005b3461026f57602036600319011261026f576004356001600160a01b0381169081900361026f57610f5b60018060a01b035f541633146116a2565b5f908152600260205260409020805460ff19169055005b3461026f57610f8036611682565b335f526002602052610f9860ff60405f2054166117cc565b610fa18261186a565b90610fab826118bf565b6003820154336001600160a01b039091160361026f5761100a6001600160801b036006840192610feb60ff855460801c16610fe581611698565b156116db565b1660048401906001600160801b0382549181199060801b169116179055565b805460ff60801b1916600160801b17815561102f90426001600160401b031690611842565b5460405160208160017f365a3d0a71be5f440c8224437355d5bd81a703759bf906e441902272bfbafcb39352a2604051600181525f5160206119ac5f395f51905f5260203392a3005b3461026f57602036600319011261026f576004356001600160a01b0381169081900361026f576110b260018060a01b035f541633146116a2565b5f908152600460205260409020805460ff19169055005b602036600319011261026f576004356110e18161186a565b6110ea816118bf565b60058101906001600160801b0382541634106111855760030180546001600160a01b03198116331790915581546001600160a01b0391909116919060801c346001600160801b0390811691909101908111610cc15781546001600160801b031660809190911b6001600160801b03191617905533917f16b85f49bf01212961345d3016c9a531894accf62eb7680f2045d79185cc0ec05f80a4005b60405162461bcd60e51b8152602060048201526014602482015273125394d551919250d251539517d410565351539560621b6044820152606490fd5b3461026f57602036600319011261026f576004356001600160a01b0381169081900361026f5760805f5160206119cc5f395f51905f529161120c60018060a01b035f541633146116a2565b805f52600360205260405f20600160ff198254161790556040519060408252600b60408301526a2224a9aa2924a12aaa27a960a91b60608301526020820152a1005b3461026f57602036600319011261026f576004356001600160a01b0381169081900361026f5760805f5160206119cc5f395f51905f529161129960018060a01b035f541633146116a2565b805f52600560205260405f20600160ff198254161790556040519060408252600960408301526821a2a92a24a324a2a960b91b60608301526020820152a1005b3461026f57602036600319011261026f576004356001600160a01b0381169081900361026f575f526005602052602060ff60405f2054166040519015158152f35b3461026f5761132836611668565b91335f52600560205261134160ff60405f20541661178f565b60405192606084018481106001600160401b03821117610e2d577ff701ae1187f8e5102b12ef0f9d1b46bf1e52c6e83afe3b3c7da130bc9ae0ddd6946020946002926040528152848101928352604081019260018452845f526006865260405f2091518255516001820155019051151560ff80198354169116179055604051908152a1005b3461026f576113d436611668565b91335f5260056020526113ed60ff60405f20541661178f565b5f52600660205260405f2060ff6002820154161561140e5790815560010155005b60405162461bcd60e51b815260206004820152600d60248201526c1393d517d0d154951251925151609a1b6044820152606490fd5b3461026f57602036600319011261026f576004356001600160a01b0381169081900361026f575f526001602052602060ff60405f2054166040519015158152f35b3461026f57602036600319011261026f576114a960018060a01b035f541633146116a2565b6114b460043561186a565b60ff600682015460901c1661026f575f808083600582950190815460801c916001600160801b038154169055600260018060a01b03910154165af16114f7611751565b501561026f57005b3461026f57602036600319011261026f5761151b60043561186a565b60038101546001600160a01b0316330361026f57600260ff600661154893015460801c166101dc81611698565b005b3461026f57602036600319011261026f576004356001600160a01b0381169081900361026f5760805f5160206119cc5f395f51905f529161159560018060a01b035f541633146116a2565b805f52600460205260405f20600160ff19825416179055604051906040825260086040830152672922aa20a4a622a960c11b60608301526020820152a1005b3461026f57602036600319011261026f576004356001600160a01b0381169081900361026f5761160e60018060a01b035f541633146116a2565b5f908152600360205260409020805460ff19169055005b3461026f57602036600319011261026f576060906004355f52600660205260405f2080549060ff6002600183015492015416918352602083015215156040820152f35b606090600319011261026f57600435906024359060443590565b604090600319011261026f576004359060243590565b6005111561025b57565b156116a957565b60405162461bcd60e51b815260206004820152600a60248201526927a7262cafa0a226a4a760b11b6044820152606490fd5b156116e257565b60405162461bcd60e51b815260206004820152600a6024820152694241445f53544154555360b01b6044820152606490fd5b6101c081019081106001600160401b03821117610e2d57604052565b90601f801991011681019081106001600160401b03821117610e2d57604052565b3d1561178a573d906001600160401b038211610e2d576040519161177f601f8201601f191660200184611730565b82523d5f602084013e565b606090565b1561179657565b60405162461bcd60e51b815260206004820152600e60248201526d27a7262cafa1a2a92a24a324a2a960911b6044820152606490fd5b156117d357565b60405162461bcd60e51b815260206004820152600e60248201526d27a7262cafa82927a1a2a9a9a7a960911b6044820152606490fd5b1561181057565b60405162461bcd60e51b815260206004820152600a6024820152694c4f545f45584953545360b01b6044820152606490fd5b9067ffffffffffffffff60401b82549160401b169067ffffffffffffffff60401b1916179055565b805f52600760205260405f20541561188a575f52600760205260405f2090565b60405162461bcd60e51b815260206004820152600d60248201526c1313d517d393d517d193d55391609a1b6044820152606490fd5b6006015460881c60ff166118cf57565b60405162461bcd60e51b815260206004820152600b60248201526a1313d517d1931051d1d15160aa1b6044820152606490fd5b6006810180549060ff8260901c16801561199c575b61199757600583015460801c91600160901b9060ff60901b191617905560028201915f8080808560018060a01b038854165af1611952611751565b501561026f57549154604080519283526001600160a01b0390911660208301527fb398ec266cae176bd0a8d43b35200da0bb13c5620ad5e1663abdc3967a4ee50f91a2565b505050565b50600583015460801c1561191756fec8644c2ef950ce9b58c7f3bf103cdabd79c55dc27f03686ff878c0c33f36fcfa606c98545793c0df614e4a07a49270302c92a296bcdbcf571aaae6655540af99a26469706673582212208acd76d54fd3b26b132be420bd13738f89cdfd6dc3bdc4a63b2042d3d04d9fc364736f6c634300081c0033",
  "linkReferences": {},
  "deployedLinkReferences": {},
  "immutableReferences": {},
  "inputSourceName": "project/contracts/PepperSupplyChain.sol",
  "buildInfoId": "solc-0_8_28-d750555f6e35e9a8886098c3e27983730a1758dc"
}