{
  "_format": "hh3-artifact-1",
  "contractName": "PepperSupplyChain",
  "sourceName": "contracts/PepperSupplyChain.sol",
  "abi": [
    {
      "inputs": [],
      "stateMutability": "nonpayable",
      "type": "constructor"
    },
    {
      "anonymous": false,
      "inputs": [
        {
          "indexed": true,
          "internalType": "address",
          "name": "actor",
          "type": "address"
        },
        {
          "indexed": true,
          "internalType": "uint256",
          "name": "lotId",
          "type": "uint256"
        },
        {
          "indexed": false,
          "internalType": "enum PepperSupplyChain.Action",
          "name": "action",
          "type": "uint8"
        }
      ],
      "name": "AuditLog",
      "type": "event"
    },
    {
      "anonymous": false,
      "inputs": [
        {
          "indexed": false,
          "internalType": "bytes32",
          "name": "farmId",
          "type": "bytes32"
        }
      ],
      "name": "FarmCertified",
      "type": "event"
    },
    {
      "anonymous": false,
      "inputs": [
        {
          "indexed": true,
          "internalType": "uint256",
          "name": "lotId",
          "type": "uint256"
        },
        {
          "indexed": true,
          "internalType": "address",
          "name": "farmer",
          "type": "address"
        }
      ],
      "name": "LotCreated",
      "type": "event"
    },
    {
      "anonymous": false,
      "inputs": [
        {
          "indexed": false,
          "internalType": "uint256",
          "name": "lotId",
          "type": "uint256"
        }
      ],
      "name": "LotFlagged",
      "type": "event"
    },
    {
      "anonymous": false,
      "inputs": [
        {
          "indexed": false,
          "internalType": "uint256",
          "name": "newLot",
          "type": "uint256"
        }
      ],
      "name": "LotMerged",
      "type": "event"
    },
    {
      "anonymous": false,
      "inputs": [
        {
          "indexed": false,
          "internalType": "uint256",
          "name": "lotId",
          "type": "uint256"
        }
      ],
      "name": "LotRecalled",
      "type": "event"
    },
    {
      "anonymous": false,
      "inputs": [
        {
          "indexed": true,
          "internalType": "uint256",
          "name": "lotId",
          "type": "uint256"
        },
        {
          "indexed": true,
          "internalType": "address",
          "name": "from",
          "type": "address"
        },
        {
          "indexed": true,
          "internalType": "address",
          "name": "to",
          "type": "address"
        }
      ],
      "name": "OwnershipTransferred",
      "type": "event"
    },
    {
      "anonymous": false,
      "inputs": [
        {
          "indexed": true,
          "internalType": "uint256",
          "name": "lotId",
          "type": "uint256"
        },
        {
          "indexed": false,
          "internalType": "uint256",
          "name": "amount",
          "type": "uint256"
        },
        {
          "indexed": false,
          "internalType": "address",
          "name": "receiver",
          "type": "address"
        }
      ],
      "name": "PaymentReleased",
      "type": "event"
    },
    {
      "anonymous": false,
      "inputs": [
        {
          "indexed": false,
          "internalType": "string",
          "name": "role",
          "type": "string"
        },
        {
          "indexed": false,
          "internalType": "address",
          "name": "user",
          "type": "address"
        }
      ],
      "name": "RoleGranted",
      "type": "event"
    },
    {
      "anonymous": false,
      "inputs": [
        {
          "indexed": true,
          "internalType": "uint256",
          "name": "lotId",
          "type": "uint256"
        },
        {
          "indexed": false,
          "internalType": "enum PepperSupplyChain.Status",
          "name": "status",
          "type": "uint8"
        }
      ],
      "name": "StatusChanged",
      "type": "event"
    },
    {
      "inputs": [],
      "name": "admin",
      "outputs": [
        {
          "internalType": "address",
          "name": "",
          "type": "address"
        }
      ],
      "stateMutability": "view",
      "type": "function"
    },
    {
      "inputs": [
        {
          "internalType": "uint256",
          "name": "id",
          "type": "uint256"
        }
      ],
      "name": "buyLot",
      "outputs": [],
      "stateMutability": "payable",
      "type": "function"
    },
    {
      "inputs": [
        {
          "internalType": "address",
          "name": "",
          "type": "address"
        }
      ],
      "name": "certifiers",
      "outputs": [
        {
          "internalType": "bool",
          "name": "",
          "type": "bool"
        }
      ],
      "stateMutability": "view",
      "type": "function"
    },
    {
      "inputs": [
        {
          "internalType": "bytes32",
          "name": "farmId",
          "type": "bytes32"
        },
        {
          "internalType": "bytes32",
          "name": "certHash",
          "type": "bytes32"
        },
        {
          "internalType": "uint256",
          "name": "validUntil",
          "type": "uint256"
        }
      ],
      "name": "certifyFarm",
      "outputs": [],
      "stateMutability": "nonpayable",
      "type": "function"
    },
    {
      "inputs": [
        {
          "internalType": "uint256",
          "name": "id",
          "type": "uint256"
        }
      ],
      "name": "confirmReceived",
      "outputs": [],
      "stateMutability": "view",
      "type": "function"
    },
    {
      "inputs": [
        {
          "internalType": "uint256",
          "name": "id",
          "type": "uint256"
        },
        {
          "internalType": "bytes32",
          "name": "farmId",
          "type": "bytes32"
        },
        {
          "internalType": "uint256",
          "name": "weight",
          "type": "uint256"
        }
      ],
      "name": "createLot",
      "outputs": [],
      "stateMutability": "nonpayable",
      "type": "function"
    },
    {
      "inputs": [
        {
          "internalType": "address",
          "name": "",
          "type": "address"
        }
      ],
      "name": "distributors",
      "outputs": [
        {
          "internalType": "bool",
          "name": "",
          "type": "bool"
        }
      ],
      "stateMutability": "view",
      "type": "function"
    },
    {
      "inputs": [
        {
          "internalType": "address",
          "name": "",
          "type": "address"
        }
      ],
      "name": "farmers",
      "outputs": [
        {
          "internalType": "bool",
          "name": "",
          "type": "bool"
        }
      ],
      "stateMutability": "view",
      "type": "function"
    },
    {
      "inputs": [
        {
          "internalType": "bytes32",
          "name": "",
          "type": "bytes32"
        }
      ],
      "name": "farms",
      "outputs": [
        {
          "internalType": "bytes32",
          "name": "certHash",
          "type": "bytes32"
        },
        {
          "internalType": "uint256",
          "name": "validUntil",
          "type": "uint256"
        },
        {
          "internalType": "bool",
          "name": "certified",
          "type": "bool"
        }
      ],
      "stateMutability": "view",
      "type": "function"
    },
    {
      "inputs": [
        {
          "internalType": "uint256",
          "name": "id",
          "type": "uint256"
        }
      ],
      "name": "flagLot",
      "outputs": [],
      "stateMutability": "nonpayable",
      "type": "function"
    },
    {
      "inputs": [
        {
          "internalType": "uint256",
          "name": "id",
          "type": "uint256"
        }
      ],
      "name": "getLot",
      "outputs": [
        {
          "components": [
            {
              "internalType": "uint256",
              "name": "id",
              "type": "uint256"
            },
            {
              "internalType": "bytes32",
              "name": "farmId",
              "type": "bytes32"
            },
            {
              "internalType": "address",
              "name": "farmer",
              "type": "address"
            },
            {
              "internalType": "address",
              "name": "owner",
              "type": "address"
            },
            {
              "internalType": "uint128",
              "name": "initialWeight",
              "type": "uint128"
            },
            {
              "internalType": "uint128",
              "name": "processedWeight",
              "type": "uint128"
            },
            {
              "internalType": "uint128",
              "name": "price",
              "type": "uint128"
            },
            {
              "internalType": "uint128",
              "name": "escrow",
              "type": "uint128"
            },
            {
              "internalType": "uint64",
              "name": "createdAt",
              "type": "uint64"
            },
            {
              "internalType": "uint64",
              "name": "updatedAt",
              "type": "uint64"
            },
            {
              "internalType": "enum PepperSupplyChain.Status",
              "name": "status",
              "type": "uint8"
            },
            {
              "internalType": "bool",
              "name": "flagged",
              "type": "bool"
            },
            {
              "internalType": "bool",
              "name": "escrowPaid",
              "type": "bool"
            },
            {
              "internalType": "uint256[]",
              "name": "sourceLots",
              "type": "uint256[]"
            }
          ],
          "internalType": "struct PepperSupplyChain.Lot",
          "name": "",
          "type": "tuple"
        }
      ],
      "stateMutability": "view",
      "type": "function"
    },
    {
      "inputs": [
        {
          "internalType": "address",
          "name": "a",
          "type": "address"
        }
      ],
      "name": "grantCertifier",
      "outputs": [],
      "stateMutability": "nonpayable",
      "type": "function"
    },
    {
      "inputs": [
        {
          "internalType": "address",
          "name": "a",
          "type": "address"
        }
      ],
      "name": "grantDistributor",
      "outputs": [],
      "stateMutability": "nonpayable",
      "type": "function"
    },
    {
      "inputs": [
        {
          "internalType": "address",
          "name": "a",
          "type": "address"
        }
      ],
      "name": "grantFarmer",
      "outputs": [],
      "stateMutability": "nonpayable",
      "type": "function"
    },
    {
      "inputs": [
        {
          "internalType": "address",
          "name": "a",
          "type": "address"
        }
      ],
      "name": "grantProcessor",
      "outputs": [],
      "stateMutability": "nonpayable",
      "type": "function"
    },
    {
      "inputs": [
        {
          "internalType": "address",
          "name": "a",
          "type": "address"
        }
      ],
      "name": "grantRetailer",
      "outputs": [],
      "stateMutability": "nonpayable",
      "type": "function"
    },
    {
      "inputs": [
        {
          "internalType": "uint256",
          "name": "",
          "type": "uint256"
        }
      ],
      "name": "lots",
      "outputs": [
        {
          "internalType": "uint256",
          "name": "id",
          "type": "uint256"
        },
        {
          "internalType": "bytes32",
          "name": "farmId",
          "type": "bytes32"
        },
        {
          "internalType": "address",
          "name": "farmer",
          "type": "address"
        },
        {
          "internalType": "address",
          "name": "owner",
          "type": "address"
        },
        {
          "internalType": "uint128",
          "name": "initialWeight",
          "type": "uint128"
        },
        {
          "internalType": "uint128",
          "name": "processedWeight",
          "type": "uint128"
        },
        {
          "internalType": "uint128",
          "name": "price",
          "type": "uint128"
        },
        {
          "internalType": "uint128",
          "name": "escrow",
          "type": "uint128"
        },
        {
          "internalType": "uint64",
          "name": "createdAt",
          "type": "uint64"
        },
        {
          "internalType": "uint64",
          "name": "updatedAt",
          "type": "uint64"
        },
        {
          "internalType": "enum PepperSupplyChain.Status",
          "name": "status",
          "type": "uint8"
        },
        {
          "internalType": "bool",
          "name": "flagged",
          "type": "bool"
        },
        {
          "internalType": "bool",
          "name": "escrowPaid",
          "type": "bool"
        }
      ],
      "stateMutability": "view",
      "type": "function"
    },
    {
      "inputs": [
        {
          "internalType": "uint256",
          "name": "id",
          "type": "uint256"
        }
      ],
      "name": "markShipped",
      "outputs": [],
      "stateMutability": "nonpayable",
      "type": "function"
    },
    {
      "inputs": [
        {
          "internalType": "uint256",
          "name": "id",
          "type": "uint256"
        }
      ],
      "name": "markSold",
      "outputs": [],
      "stateMutability": "nonpayable",
      "type": "function"
    },
    {
      "inputs": [
        {
          "internalType": "uint256",
          "name": "newId",
          "type": "uint256"
        },
        {
          "internalType": "uint256[]",
          "name": "source",
          "type": "uint256[]"
        }
      ],
      "name": "mergeLots",
      "outputs": [],
      "stateMutability": "nonpayable",
      "type": "function"
    },
    {
      "inputs": [
        {
          "internalType": "uint256",
          "name": "id",
          "type": "uint256"
        },
        {
          "internalType": "uint256",
          "name": "processedWeight",
          "type": "uint256"
        }
      ],
      "name": "processLot",
      "outputs": [],
      "stateMutability": "nonpayable",
      "type": "function"
    },
    {
      "inputs": [
        {
          "internalType": "address",
          "name": "",
          "type": "address"
        }
      ],
      "name": "processors",
      "outputs": [
        {
          "internalType": "bool",
          "name": "",
          "type": "bool"
        }
      ],
      "stateMutability": "view",
      "type": "function"
    },
    {
      "inputs": [
        {
          "internalType": "uint256",
          "name": "id",
          "type": "uint256"
        }
      ],
      "name": "recallLot",
      "outputs": [],
      "stateMutability": "nonpayable",
      "type": "function"
    },
    {
      "inputs": [
        {
          "internalType": "uint256",
          "name": "id",
          "type": "uint256"
        }
      ],
      "name": "refundEscrow",
      "outputs": [],
      "stateMutability": "nonpayable",
      "type": "function"
    },
    {
      "inputs": [
        {
          "internalType": "address",
          "name": "",
          "type": "address"
        }
      ],
      "name": "retailers",
      "outputs": [
        {
          "internalType": "bool",
          "name": "",
          "type": "bool"
        }
      ],
      "stateMutability": "view",
      "type": "function"
    },
    {
      "inputs": [
        {
          "internalType": "address",
          "name": "a",
          "type": "address"
        }
      ],
      "name": "revokeDistributor",
      "outputs": [],
      "stateMutability": "nonpayable",
      "type": "function"
    },
    {
      "inputs": [
        {
          "internalType": "address",
          "name": "a",
          "type": "address"
        }
      ],
      "name": "revokeFarmer",
      "outputs": [],
      "stateMutability": "nonpayable",
      "type": "function"
    },
    {
      "inputs": [
        {
          "internalType": "address",
          "name": "a",
          "type": "address"
        }
      ],
      "name": "revokeProcessor",
      "outputs": [],
      "stateMutability": "nonpayable",
      "type": "function"
    },
    {
      "inputs": [
        {
          "internalType": "address",
          "name": "a",
          "type": "address"
        }
      ],
      "name": "revokeRetailer",
      "outputs": [],
      "stateMutability": "nonpayable",
      "type": "function"
    },
    {
      "inputs": [
        {
          "internalType": "uint256",
          "name": "id",
          "type": "uint256"
        },
        {
          "internalType": "uint256",
          "name": "price",
          "type": "uint256"
        }
      ],
      "name": "setPrice",
      "outputs": [],
      "stateMutability": "nonpayable",
      "type": "function"
    },
    {
      "inputs": [
        {
          "internalType": "bytes32",
          "name": "farmId",
          "type": "bytes32"
        },
        {
          "internalType": "bytes32",
          "name": "newHash",
          "type": "bytes32"
        },
        {
          "internalType": "uint256",
          "name": "newValid",
          "type": "uint256"
        }
      ],
      "name": "updateFarmCertification",
      "outputs": [],
      "stateMutability": "nonpayable",
      "type": "function"
    }
  ],
  "bytecode": "0x6080604052348015600e575f5ffd5b505f80546001600160a01b0319163317905561203c8061002d5f395ff3fe6080604052600436106101d0575f3560e01c806395809737116100fd578063c2b0513a11610092578063f1648e8411610062578063f1648e84146105b7578063f7d9757714610686578063f851a440146106a5578063fed0abc8146106db575f5ffd5b8063c2b0513a1461052c578063cc6427841461054b578063e786235314610579578063eed90d6b14610598575f5ffd5b8063ab995d12116100cd578063ab995d12146104a3578063b233a679146104cf578063c009d80b146104ee578063c208bdf81461050d575f5ffd5b80639580973714610409578063965e064a1461042857806398330bb2146104565780639a268f3514610475575f5ffd5b8063514a88ab1161017357806374e3e3dc1161014357806374e3e3dc14610399578063782eb934146103ac5780637a9b62ba146103cb5780638b017a24146103ea575f5ffd5b8063514a88ab1461030e5780635d42b2b91461032d578063603765281461035b57806363ca21d71461037a575f5ffd5b806327dac36d116101ae57806327dac36d14610273578063356f9dfd14610292578063401b2168146102b15780634968441b146102ef575f5ffd5b806310f908bd146101d4578063120b93d31461023357806325c9919114610254575b5f5ffd5b3480156101df575f5ffd5b506102116101ee366004611be4565b60066020525f908152604090208054600182015460029092015490919060ff1683565b6040805193845260208401929092521515908201526060015b60405180910390f35b34801561023e575f5ffd5b5061025261024d366004611bfb565b6106fa565b005b34801561025f575f5ffd5b5061025261026e366004611bfb565b61074c565b34801561027e575f5ffd5b5061025261028d366004611be4565b6107ed565b34801561029d575f5ffd5b506102526102ac366004611be4565b610855565b3480156102bc575f5ffd5b506102df6102cb366004611bfb565b60016020525f908152604090205460ff1681565b604051901515815260200161022a565b3480156102fa575f5ffd5b50610252610309366004611c28565b610929565b348015610319575f5ffd5b50610252610328366004611c28565b6109d5565b348015610338575f5ffd5b506102df610347366004611bfb565b60056020525f908152604090205460ff1681565b348015610366575f5ffd5b50610252610375366004611bfb565b610aa1565b348015610385575f5ffd5b50610252610394366004611bfb565b610b38565b6102526103a7366004611be4565b610bd1565b3480156103b7575f5ffd5b506102526103c6366004611bfb565b610ced565b3480156103d6575f5ffd5b506102526103e5366004611c51565b610d36565b3480156103f5575f5ffd5b50610252610404366004611bfb565b610e27565b348015610414575f5ffd5b50610252610423366004611bfb565b610e70565b348015610433575f5ffd5b506102df610442366004611bfb565b60026020525f908152604090205460ff1681565b348015610461575f5ffd5b50610252610470366004611c71565b610f07565b348015610480575f5ffd5b506102df61048f366004611bfb565b60046020525f908152604090205460ff1681565b3480156104ae575f5ffd5b506104c26104bd366004611be4565b61115e565b60405161022a9190611d62565b3480156104da575f5ffd5b506102526104e9366004611be4565b61133c565b3480156104f9575f5ffd5b50610252610508366004611c28565b6113c0565b348015610518575f5ffd5b50610252610527366004611bfb565b6115ae565b348015610537575f5ffd5b50610252610546366004611bfb565b611638565b348015610556575f5ffd5b506102df610565366004611bfb565b60036020525f908152604090205460ff1681565b348015610584575f5ffd5b50610252610593366004611be4565b611681565b3480156105a3575f5ffd5b506102526105b2366004611be4565b6116fd565b3480156105c2575f5ffd5b5061066d6105d1366004611be4565b60076020525f90815260409020805460018201546002830154600384015460048501546005860154600690960154949593946001600160a01b039384169493909216926001600160801b0380831693600160801b93849004821693828416938190049092169167ffffffffffffffff80831692600160401b810490911691810460ff90811691600160881b8104821691600160901b909104168d565b60405161022a9d9c9b9a99989796959493929190611e85565b348015610691575f5ffd5b506102526106a0366004611c51565b6117d0565b3480156106b0575f5ffd5b505f546106c3906001600160a01b031681565b6040516001600160a01b03909116815260200161022a565b3480156106e6575f5ffd5b506102526106f5366004611be4565b611819565b5f546001600160a01b0316331461072c5760405162461bcd60e51b815260040161072390611f2b565b60405180910390fd5b6001600160a01b03165f908152600360205260409020805460ff19169055565b5f546001600160a01b031633146107755760405162461bcd60e51b815260040161072390611f2b565b6001600160a01b0381165f9081526004602052604090819020805460ff19166001179055515f516020611fe75f395f51905f52906107e29083906040808252600890820152672922aa20a4a622a960c11b60608201526001600160a01b0391909116602082015260800190565b60405180910390a150565b5f6107f7826118f2565b60038101549091506001600160a01b03163314610812575f5ffd5b60026006820154600160801b900460ff16600481111561083457610834611ceb565b146108515760405162461bcd60e51b815260040161072390611f4f565b5050565b5f546001600160a01b0316331461087e5760405162461bcd60e51b815260040161072390611f2b565b5f610888826118f2565b6006810154909150600160901b900460ff16156108a3575f5ffd5b6005810180546001600160801b038082169092556002830154604051600160801b909204909216915f916001600160a01b039091169083908381818185875af1925050503d805f8114610911576040519150601f19603f3d011682016040523d82523d5f602084013e610916565b606091505b5050905080610923575f5ffd5b50505050565b335f9081526005602052604090205460ff166109785760405162461bcd60e51b815260206004820152600e60248201526d27a7262cafa1a2a92a24a324a2a960911b6044820152606401610723565b5f838152600660205260409020600281015460ff166109c95760405162461bcd60e51b815260206004820152600d60248201526c1393d517d0d154951251925151609a1b6044820152606401610723565b91825560019091015550565b335f9081526005602052604090205460ff16610a245760405162461bcd60e51b815260206004820152600e60248201526d27a7262cafa1a2a92a24a324a2a960911b6044820152606401610723565b60408051606081018252838152602080820184815260018385018181525f8981526006855286902094518555915190840155516002909201805460ff19169215159290921790915590518481527ff701ae1187f8e5102b12ef0f9d1b46bf1e52c6e83afe3b3c7da130bc9ae0ddd6910160405180910390a1505050565b5f546001600160a01b03163314610aca5760405162461bcd60e51b815260040161072390611f2b565b6001600160a01b0381165f9081526005602052604090819020805460ff19166001179055515f516020611fe75f395f51905f52906107e290839060408082526009908201526821a2a92a24a324a2a960b91b60608201526001600160a01b0391909116602082015260800190565b5f546001600160a01b03163314610b615760405162461bcd60e51b815260040161072390611f2b565b6001600160a01b0381165f9081526003602052604090819020805460ff19166001179055515f516020611fe75f395f51905f52906107e29083906040808252600b908201526a2224a9aa2924a12aaa27a960a91b60608201526001600160a01b0391909116602082015260800190565b5f610bdb826118f2565b9050610be68161194f565b60058101546001600160801b0316341015610c3a5760405162461bcd60e51b8152602060048201526014602482015273125394d551919250d251539517d410565351539560621b6044820152606401610723565b600381018054336001600160a01b03198216179091556005820180546001600160a01b0390921691349190601090610c83908490600160801b90046001600160801b0316611f87565b92506101000a8154816001600160801b0302191690836001600160801b03160217905550336001600160a01b0316816001600160a01b0316847f16b85f49bf01212961345d3016c9a531894accf62eb7680f2045d79185cc0ec060405160405180910390a4505050565b5f546001600160a01b03163314610d165760405162461bcd60e51b815260040161072390611f2b565b6001600160a01b03165f908152600460205260409020805460ff19169055565b335f9081526002602052604090205460ff16610d855760405162461bcd60e51b815260206004820152600e60248201526d27a7262cafa82927a1a2a9a9a7a960911b6044820152606401610723565b5f610d8f836118f2565b9050610d9a8161194f565b60038101546001600160a01b03163314610db2575f5ffd5b5f6006820154600160801b900460ff166004811115610dd357610dd3611ceb565b14610df05760405162461bcd60e51b815260040161072390611f4f565b6004810180546001600160801b03808516600160801b029116179055610e1781600161199c565b610e22836001611a33565b505050565b5f546001600160a01b03163314610e505760405162461bcd60e51b815260040161072390611f2b565b6001600160a01b03165f908152600260205260409020805460ff19169055565b5f546001600160a01b03163314610e995760405162461bcd60e51b815260040161072390611f2b565b6001600160a01b0381165f9081526002602052604090819020805460ff19166001179055515f516020611fe75f395f51905f52906107e2908390604080825260099082015268282927a1a2a9a9a7a960b91b60608201526001600160a01b0391909116602082015260800190565b335f9081526002602052604090205460ff16610f565760405162461bcd60e51b815260206004820152600e60248201526d27a7262cafa82927a1a2a9a9a7a960911b6044820152606401610723565b5f8381526007602052604090205415610f9e5760405162461bcd60e51b815260206004820152600a6024820152694c4f545f45584953545360b01b6044820152606401610723565b5f5f5b82811015611053575f60075f868685818110610fbf57610fbf611fac565b9050602002013581526020019081526020015f20905060016004811115610fe857610fe8611ceb565b6006820154600160801b900460ff16600481111561100857611008611ceb565b14611011575f5ffd5b60038101546001600160a01b03163314611029575f5ffd5b600481015461104890600160801b90046001600160801b031684611fc0565b925050600101610fa1565b505f8481526007602081905260408220918585828161107457611074611fac565b602090810292909201358352508101919091526040015f20600190810154908201558481556003810180546001600160a01b031916331790556004810180546001600160801b0384166001600160801b031990911617905560068101805460ff60801b1916600160801b1790556110ef600782018585611b87565b50600681018054600160401b67ffffffffffffffff42169081026001600160801b0319909216171790556040518581527f6d464c92f87943ecbd519a80912d55d03aa6be625bd5ebc447151d4beb2eb8cc9060200160405180910390a1611157856004611a33565b5050505050565b6111cf604080516101c0810182525f80825260208201819052918101829052606081018290526080810182905260a0810182905260c0810182905260e08101829052610100810182905261012081018290529061014082019081525f60208201819052604082015260609081015290565b5f8281526007602090815260409182902082516101c0810184528154815260018201549281019290925260028101546001600160a01b0390811693830193909352600381015490921660608201526004808301546001600160801b038082166080850152600160801b91829004811660a0850152600585015480821660c08601528290041660e0840152600684015467ffffffffffffffff808216610100860152600160401b82041661012085015292939261014085019291900460ff169081111561129d5761129d611ceb565b60048111156112ae576112ae611ceb565b8152600682015460ff600160881b820481161515602080850191909152600160901b909204161515604080840191909152600784018054825181850281018501909352808352606090940193919290919083018282801561132c57602002820191905f5260205f20905b815481526020019060010190808311611318575b5050505050815250509050919050565b5f546001600160a01b031633146113655760405162461bcd60e51b815260040161072390611f2b565b5f61136f826118f2565b60068101805461ffff60801b1916604160821b1790556040518381529091507f0193555d7e9c83ab3bf1b10073a2a5ddd375fe766472eca26db2f6f7c15f26e5906020015b60405180910390a15050565b335f9081526001602052604090205460ff1661140c5760405162461bcd60e51b815260206004820152600b60248201526a27a7262cafa320a926a2a960a91b6044820152606401610723565b5f83815260076020526040902054156114545760405162461bcd60e51b815260206004820152600a6024820152694c4f545f45584953545360b01b6044820152606401610723565b5f828152600660205260409020600281015460ff166114aa5760405162461bcd60e51b81526020600482015260126024820152711190549357d393d517d0d15495125192515160721b6044820152606401610723565b80600101544211156114ed5760405162461bcd60e51b815260206004820152600c60248201526b10d1549517d156141254915160a21b6044820152606401610723565b5f8481526007602052604080822086815560018101869055600281018054336001600160a01b03199182168117909255600383018054909116821790556004820180546001600160801b0319166001600160801b038816179055600682018054600160401b67ffffffffffffffff421690810270ffffffffffffffffffffffffffffffffff19909216171790559151909287917faaed580d4fe13689c950c46cfb81764d28b4e2654b987b7fa488ea3dc9d783c89190a3611157855f611a33565b5f546001600160a01b031633146115d75760405162461bcd60e51b815260040161072390611f2b565b6001600160a01b0381165f81815260016020818152604092839020805460ff19169092179091558151828152600692810192909252652320a926a2a960d11b60608301528101919091525f516020611fe75f395f51905f52906080016107e2565b5f546001600160a01b031633146116615760405162461bcd60e51b815260040161072390611f2b565b6001600160a01b03165f908152600160205260409020805460ff19169055565b5f546001600160a01b031633146116aa5760405162461bcd60e51b815260040161072390611f2b565b5f6116b4826118f2565b60068101805461ffff60801b1916604160821b1790556040518381529091507f6e6436ac1c0629cca39b4bc5a42892c686a397bade5737a5b2ae50770e990cd6906020016113b4565b335f9081526003602052604090205460ff1661174e5760405162461bcd60e51b815260206004820152601060248201526f27a7262cafa224a9aa2924a12aaa27a960811b6044820152606401610723565b5f611758826118f2565b90506117638161194f565b60038101546001600160a01b0316331461177b575f5ffd5b60016006820154600160801b900460ff16600481111561179d5761179d611ceb565b146117ba5760405162461bcd60e51b815260040161072390611f4f565b6117c581600261199c565b610851826002611a33565b5f6117da836118f2565b60038101549091506001600160a01b031633146117f5575f5ffd5b60050180546001600160801b0319166001600160801b039290921691909117905550565b335f9081526004602052604090205460ff166118675760405162461bcd60e51b815260206004820152600d60248201526c27a7262cafa922aa20a4a622a960991b6044820152606401610723565b5f611871826118f2565b905061187c8161194f565b60038101546001600160a01b03163314611894575f5ffd5b60026006820154600160801b900460ff1660048111156118b6576118b6611ceb565b146118d35760405162461bcd60e51b815260040161072390611f4f565b6118de81600361199c565b6118e781611a79565b610851826003611a33565b5f81815260076020526040812054810361193e5760405162461bcd60e51b815260206004820152600d60248201526c1313d517d393d517d193d55391609a1b6044820152606401610723565b505f90815260076020526040902090565b6006810154600160881b900460ff16156119995760405162461bcd60e51b815260206004820152600b60248201526a1313d517d1931051d1d15160aa1b6044820152606401610723565b50565b60068201805482919060ff60801b1916600160801b8360048111156119c3576119c3611ceb565b02179055506006820180546fffffffffffffffff00000000000000001916600160401b4267ffffffffffffffff160217905581546040517f365a3d0a71be5f440c8224437355d5bd81a703759bf906e441902272bfbafcb390611a27908490611fd3565b60405180910390a25050565b81336001600160a01b03167fc8644c2ef950ce9b58c7f3bf103cdabd79c55dc27f03686ff878c0c33f36fcfa83604051611a6d9190611fd3565b60405180910390a35050565b6006810154600160901b900460ff1680611aa557506005810154600160801b90046001600160801b0316155b15611aad5750565b6005810154600682018054600160901b60ff60901b199091161790556002820154604051600160801b9092046001600160801b0316915f916001600160a01b03169083908381818185875af1925050503d805f8114611b27576040519150601f19603f3d011682016040523d82523d5f602084013e611b2c565b606091505b5050905080611b39575f5ffd5b82546002840154604080518581526001600160a01b0390921660208301527fb398ec266cae176bd0a8d43b35200da0bb13c5620ad5e1663abdc3967a4ee50f910160405180910390a2505050565b828054828255905f5260205f20908101928215611bc0579160200282015b82811115611bc0578235825591602001919060010190611ba5565b50611bcc929150611bd0565b5090565b5b80821115611bcc575f8155600101611bd1565b5f60208284031215611bf4575f5ffd5b5035919050565b5f60208284031215611c0b575f5ffd5b81356001600160a01b0381168114611c21575f5ffd5b9392505050565b5f5f5f60608486031215611c3a575f5ffd5b505081359360208301359350604090920135919050565b5f5f60408385031215611c62575f5ffd5b50508035926020909101359150565b5f5f5f60408486031215611c83575f5ffd5b83359250602084013567ffffffffffffffff811115611ca0575f5ffd5b8401601f81018613611cb0575f5ffd5b803567ffffffffffffffff811115611cc6575f5ffd5b8660208260051b8401011115611cda575f5ffd5b939660209190910195509293505050565b634e487b7160e01b5f52602160045260245ffd5b6005811061199957634e487b7160e01b5f52602160045260245ffd5b611d2481611cff565b9052565b5f8151808452602084019350602083015f5b82811015611d58578151865260209586019590910190600101611d3a565b5093949350505050565b6020815281516020820152602082015160408201525f6040830151611d9260608401826001600160a01b03169052565b5060608301516001600160a01b03811660808401525060808301516001600160801b03811660a08401525060a08301516001600160801b03811660c08401525060c08301516001600160801b03811660e08401525060e08301516001600160801b0381166101008401525061010083015167ffffffffffffffff81166101208401525061012083015167ffffffffffffffff811661014084015250610140830151611e41610160840182611d1b565b50610160830151801515610180840152506101808301518015156101a0840152506101a08301516101c080840152611e7d6101e0840182611d28565b949350505050565b8d8152602081018d90526001600160a01b038c811660408301528b1660608201526001600160801b038a8116608083015289811660a0830152881660c08201526101a081016001600160801b03881660e083015267ffffffffffffffff871661010083015267ffffffffffffffff8616610120830152611f09610140830186611d1b565b921515610160820152901515610180909101529b9a5050505050505050505050565b6020808252600a908201526927a7262cafa0a226a4a760b11b604082015260600190565b6020808252600a90820152694241445f53544154555360b01b604082015260600190565b634e487b7160e01b5f52601160045260245ffd5b6001600160801b038181168382160190811115611fa657611fa6611f73565b92915050565b634e487b7160e01b5f52603260045260245ffd5b80820180821115611fa657611fa6611f73565b60208101611fe083611cff565b9190529056fe606c98545793c0df614e4a07a49270302c92a296bcdbcf571aaae6655540af99a2646970667358221220e057695ae5702749a252fbe2c9e225edb60859ac9cb06b9c90d88c718873916364736f6c634300081c0033",
  "linkReferences": {},
  "deployedLinkReferences": {},
  "immutableReferences": {},
  "inputSourceName": "project/contracts/PepperSupplyChain.sol",
  "buildInfoId": "solc-0_8_28-e9d37bcaf23e4f87e60908008dcd8eab51b4e365"
}